:020000040800F2
:100000008008002089010008910100089301000880
:100010009501000897010008990100080000000000
:100020000000000000000000000000009B0100082C
:100030009D010008000000009F010008A1010008C8
:10004000A3010008A3010008A3010008A301000800
:10005000A3010008A3010008A3010008A3010008F0
:10006000A3010008A3010008A3010008A3010008E0
:10007000A3010008A3010008A3010008A3010008D0
:10008000A3010008A3010008A3010008A3010008C0
:10009000A3010008A3010008A3010008A3010008B0
:1000A000A3010008A3010008A3010008A3010008A0
:1000B000A3010008A3010008A3010008A301000890
:1000C000A3010008A3010008A3010008A301000880
:1000D000A30100080907000855080008A30100084B
:1000E000A3010008A3010008A301000800F002F822
:1000F00000F03AF80AA090E8000C82448344AAF188
:100100000107DA4501D100F02FF8AFF2090EBAE885
:100110000F0013F0010F18BFFB1A43F0010318473B
:10012000DC0A0000FC0A0000103A24BF78C878C13D
:10013000FAD8520724BF30C830C144BF04680C60ED
:10014000704700000023002400250026103A28BF35
:1001500078C1FBD8520728BF30C148BF0B60704739
:100160001FB51FBD10B510BD00F031F81146FFF7E7
:10017000F7FF00F003FD00F04FF803B4FFF7F2FFC4
:1001800003BC00F0E8FC000009488047094800472C
:10019000FEE7FEE7FEE7FEE7FEE7FEE7FEE7FEE737
:1001A000FEE7FEE704480549054A064B7047000094
:1001B000A9060008ED000008800200208008002049
:1001C0008004002080040020704770477047754607
:1001D00000F02CF8AE4605006946534620F00700B3
:1001E000854618B020B5FFF7DDFFBDE820404FF091
:1001F00000064FF000074FF000084FF0000B21F011
:100200000701AC46ACE8C009ACE8C009ACE8C009DD
:10021000ACE8C0098D46704710B50446AFF30080C6
:100220002046BDE81040FFF7A8BF00000048704717
:1002300020020020F8B504460D4608261D48201A65
:10024000B0F5A05F1AD009DCB0F5006F10D0B0F5A2
:10025000406F0FD0B0F5805F19D10DE0B0F5C05FF1
:100260000ED0B0F5E05F0DD0B0F5005F0FD10BE020
:1002700004260DE008260BE0102609E0202607E002
:10028000402605E0802603E04FF4807600E000BFC2
:1002900000BF0121304600F019F9ADF800501020E0
:1002A0008DF8030003208DF802006946024800F033
:1002B00005F8F8BD00000140000C01402DE9F041B7
:1002C000024600250026002000230024002791F884
:1002D00003C00CF00F0591F803C00CF0100CBCF13A
:1002E000000F03D091F802C04CEA050591F800C058
:1002F000BCF1000F31D0146800202BE04FF0010C4E
:100300000CFA00F3B1F800C00CEA03069E4220D1BB
:1003100083004FF00F0C0CFA03F7BC4305FA03FC03
:100320004CEA040491F803C0BCF1280F06D14FF049
:10033000010C0CFA00FCC2F814C00AE091F803C0EA
:10034000BCF1480F05D14FF0010C0CFA00FCC2F8CB
:1003500010C0401C0828D1D31460B1F800C0BCF113
:10036000FF0F34DD546800202EE000F1080C4FF040
:10037000010808FA0CF3B1F800C00CEA03069E422B
:1003800021D183004FF00F0C0CFA03F7BC4305FAA0
:1003900003FC4CEA040491F803C0BCF1280F05D11A
:1003A00000F1080C08FA0CF8C2F8148091F803C0A8
:1003B000BCF1480F07D100F1080C4FF0010808FA12
:1003C0000CF8C2F81080401C0828CED35460BDE859
:1003D000F081416170470161704708B54FF4C0601A
:1003E00000F05AF825208DF8000001208DF801005A
:1003F00003208DF8020001208DF80300684600F00C
:1004000013F84FF4C06000F047F826208DF8000084
:1004100001208DF801008DF802008DF80300684678
:1004200000F002F808BD000070B5002100230F2283
:10043000C47804B3154C246804F4E064C4F5E064A3
:10044000210AC1F10403CA40447804FA03F1847814
:100450001440214309010E4C0678A155047804F09C
:100460001F050124AC4005786D11AD0005F1E025B4
:10047000C5F8004109E0047804F01F050124AC40F0
:10048000044D0678761145F8264070BD0CED00E06D
:1004900000E400E080E100E002490143024A11600B
:1004A000704700000000FA050CED00E029B1064A93
:1004B000D2690243044BDA6104E0034AD269824301
:1004C000014BDA61704700000010024029B1064A72
:1004D00092690243044B9A6104E0034A92698243A1
:1004E000014B9A61704700000010024030B50021B6
:1004F0000022002400232D4D6D6805F00C0121B170
:10050000042905D0082923D105E0294D056022E002
:10051000274D05601FE0254D6D6805F47012234DD1
:100520006D6805F48034022505EB92421CB9214D1B
:10053000554305600BE01D4D6D6805F400351DB198
:100540001C4D5543056002E0194D5543056002E01E
:10055000174D056000BF00BF144D6D6805F0F00138
:100560000909154D6B5C0568DD4045600F4D6D68F0
:1005700005F4E061090A104D6B5C4568DD4085605B
:100580000A4D6D6805F46051C90A0B4D6B5C4568F6
:10059000DD40C560054D6D6805F44041890B074D90
:1005A0006B5CC568B5FBF3F5056130BD001002401A
:1005B00000127A0000093D000C0000201C00002001
:1005C00010B500F001F810BD0CB5002001900090AE
:1005D0003348006840F480303149086000BF30483B
:1005E000006800F4003000900198401C01900098D1
:1005F00018B90198B0F5A06FF1D12948006800F44E
:10060000003010B10120009001E00020009000981F
:10061000012843D12348006840F0100021490860B8
:100620000846006820F0030008600846006840F0B3
:10063000020008601A484068194948600846406846
:1006400048600846406840F480604860084640685A
:1006500020F47C1048600846406840F4E810486088
:100660000846006840F08070086000BF0C480068D1
:1006700000F000700028F9D00948406820F003001D
:10068000074948600846406840F00200486000BFE3
:100690000348406800F00C000828F9D10CBD0000A8
:1006A000001002400020024010B51348006840F0DE
:1006B00001001149086008464068104908400E4989
:1006C0004860084600680E4908400B490860084623
:1006D000006820F4802008600846406820F4FE008E
:1006E00048604FF41F008860FFF76AFF4FF000601A
:1006F0000449086010BD0000001002400000FFF82F
:10070000FFFFF6FE08ED00E010B540F2255110485D
:1007100000F05DF9D0B10E4800F014FAC1B20D48F6
:1007200002780078401C0B4B18700B4881540B4822
:100730000078FF2805DA09480078401C074908704E
:1007400004E007480078401C0549087010BD00000F
:10075000003801400200002020000020000000209E
:100760000100002000B585B001210420FFF7AEFE96
:1007700018208DF803004FF40070ADF8000003203E
:100780008DF8020069461848FFF798FD04208DF89F
:1007900003000002ADF8000069461348FFF78EFD24
:1007A00001218803FFF792FE4FF4E1300190002011
:1007B000ADF80800ADF80A00ADF80C00ADF8100077
:1007C0000C20ADF80E0001A9084800F04FF90122F5
:1007D00040F22551054800F024F90121034800F0BA
:1007E000DDF805B000BD0000000801400038014000
:1007F0000948007808B90020704707480078401E73
:1008000005490870054801780078401C034A1070BB
:100810000348405CF0E700000000002001000020D9
:1008200020000020014800787047000000000020F0
:1008300010B504462146064800F089F900BF402162
:10084000034800F0B7F80028F9D0204610BD00009A
:100850000038014010B540F22551104800F0B7F8BB
:10086000D0B10E4800F06EF9C1B20D4802780078A0
:10087000401C0B4B18700B4881540B480078FF2824
:1008800005DA09480078401C0749087004E0074869
:100890000078401C0549087010BD0000004400406D
:1008A000050000202001002003000020040000209B
:1008B00000B585B001210420FFF708FE18208DF84F
:1008C00003000420ADF8000003208DF80200694603
:1008D0001748FFF7F3FC04208DF803000820ADF85B
:1008E000000069461248FFF7E9FC01214804FFF7C0
:1008F000DDFD4FF4165001900020ADF80800ADF872
:100900000A00ADF80C00ADF810000C20ADF80E0098
:1009100001A9084800F0AAF8012240F22551054833
:1009200000F07FF80121034800F038F805B000BD61
:1009300000080140004400400948007808B9002040
:10094000704707480078401E05490870054801783F
:100950000078401C034A10700348405CF0E7000038
:10096000030000200400002020010020014800783E
:10097000704700000300002010B5044621460648D9
:1009800000F0E5F800BF4021034800F013F800280C
:10099000F9D0204610BD00000044004021B18289FA
:1009A00042F40052828104E082894DF6FF731A40BE
:1009B0008281704702460020B1F5007F00D100BF60
:1009C00013880B400BB1012000E00020704770B588
:1009D0000246002400230025002040F66A16B1429A
:1009E00000D100BFC1F3421501F01F03012606FA32
:1009F00003F3012D02D19689334006E0022D02D186
:100A0000168A334001E0968A33400C12012606FA1A
:100A100004F41688344013B10CB1012000E000202A
:100A200070BDF0B50346002400260025002040F6E6
:100A30006A17B94200D100BF1846C1F3421401F051
:100A40001F06012707FA06F5012C01D10C3004E03E
:100A5000022C01D1103000E014301AB107682F4386
:100A6000076002E00768AF430760F0BD2DE9F0477B
:100A700086B005460E460024A24600BFA1460027C8
:100A8000B08900B100BF2F462C8A4CF6FF7004409D
:100A9000F08804432C82AC894EF6F3100440B088F1
:100AA00031890843718908430443AC81AC8A4FF60D
:100AB000FF400440B0890443AC8201A8FFF716FD53
:100AC0001F48874202D1DDF810A001E0DDF80CA03C
:100AD000A88900F4004040B10AEBCA0000EB0A10FC
:100AE00031684900B0FBF1F807E00AEBCA0000EBFF
:100AF0000A1031688900B0FBF1F86420B8FBF0F00F
:100B000004012009642101FB1089A88900F4004038
:100B100040B1322000EBC900B0FBF1F000F007005B
:100B2000044308E0322000EB09106421B0FBF1F02F
:100B300000F00F0004432C8106B0BDE8F0870000F0
:100B40000038014001468888C0F308007047C1F3AF
:100B5000080282807047704701B581B00020009084
:100B600048F2D04101984843009002E00098401EAE
:100B7000009000980028F9D10CBD0000002403214A
:100B80001D48FFF757FBFFF7EDFDFFF791FEFFF75D
:100B900024FC2FE001211848FFF71DFC0221164814
:100BA000FFF717FC1E20FFF7D7FF02211248FFF7BF
:100BB00012FC01211048FFF70CFC0A20FFF7CCFFC4
:100BC000FFF730FE044604E0FFF712FE0546FFF78C
:100BD000D3FE201EA4F10104F6D1FFF7C7FE0446A0
:100BE00004E0FFF7A9FE0546FFF722FE201EA4F150
:100BF0000104F6D1CEE70000000C01401C0C0008F7
:100C00000000002020000000280100083C0C000823
:100C100020000020600800004401000800000000DF
:100C200000000000000000000000000001020304BA
:0C0C30000102030406070809020406087C
:04000005080000ED02
:00000001FF
